:100D7900100110011001887F88404C202C040A04BE
:100D8900891488244824484428440804080508028A
:100D99000800083F082008103F0824042404A47F01
:100DA9002404120414040804140422042105000272
:100DB9000000C03F1E089208920892085208D27F8C
:100DC900120C120A1E09920840082008000A0004A1
:100DD900000000000000000000000000000000000A
:100DE90000000000000000000000000000000000FA
:100DF90000000000000000000000000000000000EA
:100E090000000000000000000000000000000000D9
:100E190000000000000000000000000000000000C9
:100E290000000000000000000000000000000000B9
:100E390000000000000000000000000000000000A9
:100E49000000000000000000000000000000000099
:100E59000000000000000000000000000000000089
:100E69000000000000000000000000000000000079
:100E79000000000000000000000000000000000069
:100E89000000000000000000000000000000000059
:100E99000000000000000000000000000000000049
:100EA9000000000000000000000000000000000039
:100EB9000000081C0E2208200810080808043E3EFD
:100EC90000001C18221420141812203E22101C1095
:100ED90000003E1C020202021C1E202220221E1CAF
:100EE90000003E1C20221022103E08220422041C6D
:100EF90000001C1C222222223C22202220221C1C0F
:100F090000000000000000000000000000000000D8
:100F19000000221C220822083E0822082208221C5E
:100F290000003C221012100A1006100A12120C229C
:100F390000000000000000000000000000000000A8
:100F49000000000000000000000000000000000098
:100F59000000000000000000000000000000000088
:100F69000000000000000000000000000000000078
:100F79000000000000000000000000000000000068
:100F89000000000000000000000000000000000058
:100F99000000000000000000000000000000000048
:100FA9000000000000000000000000000000000038
:100FB9000000000000000000000000000000000028
:100FC9000000000000000000000000000000000018
:100FD9000000000000000000000000000000000008
:100FE90000000000000000000000000000000000F8
:100FF900C0F9A4B0999282F88090FEFDFBF7EFDF6B
:02100900BF7FA7
:1013CA000126000229000002310003022B0001015C
:1013DA002F0C01300C012D000127000864C0F9A46C
:1013EA00B0999282F8016F000121000133000122B5
:1013FA000C012300016C00012E00012800012400C9
:07140A00012500026D000046
:1015350053890F438920758DFD758BFDD28EC29F12
:09154500D29ED2AFD2ACD29C229E
:0C159900C2AC8F993099FDC299D2AC22EF
:0614C9008B178A18891937
:1014CF00E4FDFCAB17AA18A9198D828C831211D0D9
:0D14DF00FF600A1215990DBD00010C80E69A
:0114EC0022DD
:1014ED007D377C00AB07AA06D3EB9400EA648094A9
:1014FD00804007EB1B70F11A80EEED1D70011CEDA5
:03150D004C70E13E
:0115100022B8
:10137F00E52A25E0FDE52933FCE51125E0FFE51021
:10138F0033FEEF2DFFEE3CFE75F040E52C121260A0
:10139F00E52B75F040A42583252CF583E5822FF5E9
:0913AF0082E5833EF583E493FF1F
:1013B800E4FEEFA2E713FF9290C291D2910EBE080D
:0113C800F133
:0113C9002201
:10156300EF1313543F1392A2EFC3131392A1EF137C
:0315730092A02221
:041511007F0A7E00CF
:10151500E4FDFCC3ED9FEC9E5015E4FBFA0BBB000C
:0F152500010AEB647B4A70F50DBD00010C80E4F8
:011534002294
:10158900438901758CDCE4F58AD2AFD2A9D28C22C9
:10000E00751401753100753203D293D294D295D204
:10001E0096D297D2A775266D0209FA30A503020A69
:10002E0002209308752675E4F529F52A309403020B
:10003E0000BD752664E4F529F52AF56DF56EE56EBD
:10004E0025E0FFE56D33FE900C3975F040E52C127E
:10005E001260E52B75F040A42583252CF583E582EF
:10006E002FF582E5833EF583E493FDA96EE925E045
:10007E002444F8A605900C3A75F040E52C12126057
:10008E00E52B75F040A42583252CF583E5822FF50D
:10009E0082E5833EF583E493FFE925E02445F8A647
:1000AE0007056EE56E7002056D6410456D708F303C
:1000BE009503020176752672E4F529F52AF56DF59C
:1000CE006EE56E25E0FFE56D33FE900C3975F04060
:1000DE00E52C121260E52B75F040A42583252CF536
:1000EE0083E5822FF582E5833EF583E493FDA96EC9
:1000FE00E925E02444F8A605900C3A75F040E52C6D
:10010E00121260E52B75F040A42583252CF583E5AE
:10011E00822FF582E5833EF583E493FFE925E02403
:10012E0045F8A607E56E25E0FFE56D33FE900C5A07
:10013E0075F040E52C121260E52B75F040A4258376
:10014E00252CF583E5822FF582E5833EF583E49336
:10015E00FF743429F8A607056EE56E7002056D640E
:10016E0010456D60030200CF30960302022F7526F4
:10017E006CE4F529F52AF56DF56EE56E25E0FFE5E3
:10018E006D33FE900C3975F040E52C121260E52BA4
:10019E0075F040A42583252CF583E5822FF582E5A5
:1001AE00833EF583E493FDA96EE925E02444F8A689
:1001BE0005900C3A75F040E52C121260E52B75F0A7
:1001CE0040A42583252CF583E5822FF582E5833E19
:1001DE00F583E493FFE925E02445F8A607E56E25AF
:1001EE00E0FFE56D33FE900C5975F040E52C1212D0
:1001FE0060E52B75F040A42583252CF583E5822F31
:10020E00F582E5833EF583E493FF743429F8A6075F
:10021E00056EE56E7002056D6410456D600302019A
:10022E008820970875266DE4F529F52A20A739E46C
:10023E00F529F52A0514E514C3940340037514013A
:10024E00E514B4010C753100753203752B00752C55
:10025E0001E514B4020C753100753204752B00756E
:10026E002C0275266D30A7FDE4F510F511C3E511CE
:10027E009408E51064809480501174032511F58262
:10028E00741035101213B37FFF80147FFF1213B852
:10029E0074FB2511F582740F3510F583E493FF126C
:1002AE0013B8E52664756006E526646D700C900C37
:1002BE003912137F900C3A12137FE5266464600B9B
:1002CE00E526646C6005E526B47218E51125E02478
:1002DE0044F8E6FF1213B8E51125E02445F8E6FFD1
:1002EE001213B8D292C2927F027E001214ED051143
:1002FE00E51170020510C39410E5106480948050CF
:10030E000302027BE526646C60030205800513E59B
:10031E001370020512D39406E51264809480500384
:10032E00020580E4F512F513052AE52A7002052967
:10033E00E4F56DF56EAF6EEF25E02445F8E630E09E
:10034E000DEF25E02444F8E6C3134480800DAF6E14
:10035E00EF25E02444F8E6C313547FFEEF25E02496
:10036E0044F8A606AF6E74342FF8E630E00DEF2594
:10037E00E02445F8E6C3134480800DAF6EEF25E010
:10038E002445F8E6C313547FFEEF25E02445F8A676
:10039E00067434256EF8C000E6FFC313D000F605D0
:1003AE006EE56E7002056D6410456D7088E52A5419
:1003BE000760030204B4AE29E52A7803CEC313CE38
:1003CE0013D8F920E068E4F56DF56EE529C4F8540C
:1003DE00F0C868FEE52AC4540F487805C333CE33FF
:1003EE00CED8F9FDAC06E56E25E0FFE56D33FEEDEA
:1003FE002FFFEC3EFE900C5975F040E52C1212606A
:10040E00E52B75F040A42583252CF583E5822FF589
:10041E0082E5833EF583E493FF7434256EF8A607D8
:10042E00056EE56E7002056D6410456D709DAE290A
:10043E00E52A7803CEC313CE13D8F930E068E4F57D
:10044E006DF56EE529C4F854F0C868FEE52AC4546B
:10045E000F487805C333CE33CED8F9FDAC06E56E22
:10046E0025E0FFE56D33FEED2FFFEC3EFE900C5ABE
:10047E0075F040E52C121260E52B75F040A4258333
:10048E00252CF583E5822FF582E5833EF583E493F3
:10049E00FF7434256EF8A607056EE56E7002056DC5
:1004AE006410456D709DE532C4F8540FC868FFE5C1
:1004BE0031C454F048FED3E52A9FE5299E5003022D
:1004CE000580E4F529F52AF56DF56EE56E25E0FF5C
:1004DE00E56D33FE900C3975F040E52C121260E597
:1004EE002B75F040A42583252CF583E5822FF5820C
:1004FE00E5833EF583E493FDA96EE925E02444F8F7
:10050E00A605900C3A75F040E52C121260E52B759D
:10051E00F040A42583252CF583E5822FF582E58313
:10052E003EF583E493FFE925E02445F8A607E56E42
:10053E0025E0FFE56D33FE900C5975F040E52C1269
:10054E001260E52B75F040A42583252CF583E582FA
:10055E002FF582E5833EF583E493FF743429F8A6E4
:10056E0007056EE56E7002056D6410456D60030241
:10057E0004D9E526647260030207FB0513E51370C8
:10058E00020512D39406E51264809480500302078C
:10059E00FBE4F512F513052AE52A70020529E4F5A8
:1005AE006DF56EE56E25E02444F8E6C4131313547E
:1005BE0001AD6E30E00DED25E02445F8E625E04472
:1005CE0001800BED25E02445F8E625E054FEFCED18
:1005DE0025E02445F8A6047434256EF8E6C41313FA
:1005EE00135401AF6E30E00DEF25E02444F8E625FC
:1005FE00E04401800BEF25E02444F8E625E054FEAC
:10060E00FEEF25E02444F8A6067434256EF8C000EB
:10061E00E6FF25E0D000F6056EE56E7002056D640E
:10062E0010456D60030205B1E52A54076003020709
:10063E002FAE29E52A7803CEC313CE13D8F920E0C6
:10064E0068E4F56DF56EE529C4F854F0C868FEE56A
:10065E002AC4540F487805C333CE33CED8F9FDAC37
:10066E0006E56E25E0FFE56D33FEED2FFFEC3EFE59
:10067E00900C5A75F040E52C121260E52B75F04087
:10068E00A42583252CF583E5822FF582E5833EF59F
:10069E0083E493FF7434256EF8A607056EE56E703D
:1006AE0002056D6410456D709DAE29E52A7803CE66
:1006BE00C313CE13D8F930E068E4F56DF56EE52975
:1006CE00C4F854F0C868FEE52AC4540F487805C330
:1006DE0033CE33CED8F9FDAC06E56E25E0FFE56DE1
:1006EE0033FEED2FFFEC3EFE900C5975F040E52CDD
:1006FE00121260E52B75F040A42583252CF583E5B9
:10070E00822FF582E5833EF583E493FF7434256EE4
:10071E00F8A607056EE56E7002056D6410456D70E6
:10072E009DE532C4F8540FC868FFE531C454F04853
:10073E00FED3E52A9FE5299E50030207FBE4F52927
:10074E00F52AF56DF56EE56E25E0FFE56D33FE904D
:10075E000C3975F040E52C121260E52B75F040A4B3
:10076E002583252CF583E5822FF582E5833EF583DF
:10077E00E493FDA96EE925E02444F8A605900C3A11
:10078E0075F040E52C121260E52B75F040A4258320
:10079E00252CF583E5822FF582E5833EF583E493E0
:1007AE00FFE925E02445F8A607E56E25E0FFE56D97
:1007BE0033FE900C5A75F040E52C121260E52B7545
:1007CE00F040A42583252CF583E5822FF582E58361
:1007DE003EF583E493FF743429F8A607056EE56EA3
:1007EE007002056D6410456D6003020754E52664C2
:1007FE0064600302096C0513E51370020512D394AD
:10080E0005E51264809480500302096CE4F512F53C
:10081E0013052AE52A70020529756D00756E0EAF57
:10082E006EEF25E02444F8E6FEEF25E02446F8A618
:10083E0006AF6EEF25E02445F8E6FEEF25E02447EF
:10084E00F8A606E56E156E7002156DE56EB4FFCF57
:10085E00E56DB4FFCAE529C4F854F0C868FEE52A70
:10086E00C4540F487805C333CE33CED8F9FDAC0649
:10087E00E52A25E0FFEF541FFFC3ED9FFFEC940028
:10088E00FE900C7975F040E52C121260E52B75F098
:10089E0040A42583252CF583E5822FF582E5833E42
:1008AE00F583E493F544900C7A75F040E52C121222
:1008BE0060E52B75F040A42583252CF583E5822F6A
:1008CE00F582E5833EF583E493F545E532C4F854AD
:1008DE000FC868FFE531C454F048FED3E52A9FE502
:1008EE00299E407AE4F529F52AF56DF56EE56E251B
:1008FE00E0FFE56D33FE900C3975F040E52C1212D9
:10090E0060E52B75F040A42583252CF583E5822F19
:10091E00F582E5833EF583E493FDA96EE925E02497
:10092E0044F8A605900C3A75F040E52C121260E5DD
:10093E002B75F040A42583252CF583E5822FF582B7
:10094E00E5833EF583E493FFE925E02445F8A60709
:10095E00056EE56E7002056D6410456D708FE526AF
:10096E00B4753E0513E51370020512D39405E51216
:10097E0064809480402BE4F512F513052AE52A7065
:10098E00020529E532C4F8540FC868FFE531C45496
:10099E00F048FED3E52A9FE5299E4005E4F529F5AA
:1009AE002AE526646D60030200290513E513700223
:1009BE000512D39419E51264809480500302002925
:1009CE00E4F512F5137410252AF52AE43529F529D4
:1009DE00E532C4F8540FC868FFE531C454F048FE40
:1009EE00D3E52A9FE5299E5003020029E4F529F557
:0409FE002A020029A0
:010A020022D1
:100A0300E4F510F511F512F5137580FFD2B7121541
:100A1300891214A11214127F14020D6D30A6030261
:100A23000D7520B21B12151120B2150510E510C368
:100A330094034003E4F510E4F52130B2FD121511DF
:100A430020B31C12151120B316C374019521F5218F
:100A5300E510B40207C374019525F52530B3FD20D5
:100A6300B43B12151120B435E510700C0513E513D2
:100A7300C394034003E4F513E510B4010C0513E537
:100A830013C394034003E4F513E510B40209E4F53A
:100A93002EF528F524F52530B4FD12151130B603D3
:100AA300020B2312151120B677E510702FE5137092
:100AB3000BE52F7005752F178002152FE513B40171
:100AC3000BE530700575303B80021530E513B40239
:100AD3000BE52D7005752D3B8002152DE510640186
:100AE3007038E513700EE522D39400500575221774
:100AF30080021522E513B4010EE523D394005005BB
:100B030075233B80021523E513B4020EE56CD394E1
:100B1300005005756C018002156C30B6FD1215117D
:100B230020B57A12151120B574E5107032E51370F3
:100B33000C052FE52FC394184003E4F52FE513B4F8
:100B4300010C0530E530C3943C4003E4F530E51374
:100B5300B4020C052DE52DC3943C4003E4F52DE5CB
:100B63001064017032E513700C0522E522C394185A
:100B73004003E4F522E513B4010C0523E523C394F4
:100B83003C4003E4F523E513B4020C056CE56CC3A8
:100B930094024003E4F56C30B5FD121511E56CB415
:100BA3000112E522B52F09E523B53004C2B780064B
:100BB300D2B78002D2B7E51070797566BF7569BF89
:100BC300E52F75F00A8475F00A84E5F0900FF99328
:100BD300F564E52F75F00A84E5F093F565E5307566
:100BE300F00A8475F00A84E5F093F567E53075F053
:100BF3000A84E5F093F568E52D75F00A8475F00A2B
:100C030084E5F093F56AE52D75F00A84E5F093F534
:100C13006BE521B4011DE533C394645016E51375E8
:100C2300F003A42464F876FFE51375F003A42465A8
:100C3300F876FFE5106401706D7566BF7569FF7521
:100C43006AFFE52275F00A8475F00A84E5F0900FD7
:100C5300F993F564E52275F00A84E5F093F565E50B
:100C63002375F00A8475F00A84E5F093F567E523AC
:100C730075F00A84E5F093F568E56C75F00A84E590
:100C8300F093F56BE521B4011DE533C3946450166D
:100C9300E51375F003A42464F876FFE51375F003F8
:100CA300A42465F876FFE51064026003020D6B056A
:100CB30012E51270020511C39432E5119400405FEE
:100CC300E4F511F512121412AC06AD07E412111675
:100CD300E4FBFA7980783D12100B12114FAB07AA8F
:100CE30006C3EB9401EA940040357C007D0A12119F
:100CF300FD7C007D0A1211FD74F92DF582740F3C01
:100D0300F583E493F564AE02AF037C007D0A121110
:100D1300FD74F92DF582740F3CF583E493F5657545
:100D230066FFE52E75F00A8475F00A84E5F0900FEE
:100D3300F993F567E52E75F00A84E5F093547FF592
:100D430068E52875F00A8475F00A84E5F093F5697F
:100D5300E52875F00A84E5F093547FF56AE5247578
:100D6300F00A84E5F093F56B7F0A7E0012151502F5
:050D73000A1F7580FF5E
:010D78002258
:03000B000212F8E6
:1012F800C0E0C0D075D008758CEE758A00056FE522
:101308006FC394084003756F007580FFAF6F1215A7
:10131800637464256FF8E6F580E525B40124052497
:10132800E524C394C840057524000528E528C3941E
:101338003C4005752800052EE52EC3943C400375F6
:101348002E000533E533C394C84005753300052DD9
:10135800E52DC3943C4005752D000530E530C39458
:101368003C4005753000052FE52FC39418400375E0
:071378002F00D0D0D0E032BD
:1015760020A50312000E20A605120A0380F275802C
:03158600FF80EDF6
:1014A100C200D2A37F05120003C2A37FC8120003AA
:1014B1007FC8120003D2A37F32120003A2A39200BD
:0714C1007F19120003A200D5
:0114C8002201
:10147800E4F515F516751508C2A3E516C313F51698
:10148800D2A330A3034316807F191200031515E574
:0814980015D3940050E2AF16D9
:0114A0002229
:02144E008F15F8
:10145000E4F516751608C2A3E5151392A37F1912B9
:101460000003D2A3E515C313F5151516E516D3949D
:081470000050E37F19020003A4
:10141200E4F514FFFEFDFC1214A17FCC12144E7FE2
:101422004412144E7F0612154E1214A17FCC1214D0
:101432004E7FBE12144E1214788F14121478EF7F5E
:0B14420000FEEF2514FDE43EFEAF05A8
:01144D00227C
:03000300DFFE22FB
:10154E00AE07AF061EEF600C7FF51200037FF5129B
:05155E00000380EE22F5
:10100B00EC4D6011E8497017ED33EC3304600DE4DF
:10101B00FCFFFEFD22E933E8330470F80211BB122A
:10102B00118658046009E4CC24815006285009022B
:10103B0011C52840030211C2C0E0EB4A7044B980CD
:10104B0006D0E0FB0211B1EF4E701CBD8008EBFF28
:10105B00EAFEE9FD80EBE98DF0A4FEE5F00210F469
:10106B00E9CDF9EAFEEBFFEF89F0A4FCE5F0CE89C0
:10107B00F0A42EFFE435F0CD89F0A42DFEE435F07D
:10108B008067EF4E7005BD80D780C3EF8BF0A4ACAB
:10109B00F0EE8BF0A42CFCE435F0F8EF8AF0A42CE6
:1010AB00E5F038FCE433CB8DF0A42CFCE5F03BF8F9
:1010BB00EE8AF0A42CFCE5F038F8E433CF89F0A4E9
:1010CB002CFCE5F038CF3400CE89F0A42FFFE5F0EF
:1010DB003EFEE433C98DF0A42EFEE5F039CD8AF047
:1010EB00A42FFFE5F03EFEE43DFD33D0E0FB5007BF
:1010FB000BBB000F0211C5EC2CFCEF33FFEE33FEE4
:06110B00ED33FD02119D11
:1011110075F020800E75F010800575F0087D007E59
:10112100007F003392D530D503121252EC334010B8
:10113100EF33FFEE33FEED33FDEC33FCD5F0ED2262
:0E114100E5F0247EA2D513CC92E7CDCEFF229E
:10114F00EDD2E7CD33EC3392D524814006E4FFFE98
:10115F00FDFC22FCE4CFCECDCC24E0501174FF80F7
:10116F00EDC3CC13CCCD13CDCE13CECF13CF047094
:07117F00F030D5DE02125230
:10118600E9D2E7C933E833F892D5EDD2E7CD33ECAF
:0711960033FC5002B2D52228
:10119D00EC30E7100FBF000C0EBE00080DBD0004B3
:1011AD000BEB6014A2D5EB13FCED92E7FD2274FF5F
:1011BD00FCFDFEFF22E480F8A2D574FF13FC7D80B8
:0311CD00E480EFCC
:0300000002126C7D
:0C126C00787FE4F6D8FD75816F0212B3A4
:1011D000BB010CE58229F582E5833AF583E02250D4
:1011E00006E92582F8E622BBFE06E92582F8E2221E
:0D11F000E58229F582E5833AF583E4932238
:1011FD00BC000BBE0029EF8DF084FFADF022E4CCD6
:10120D00F875F008EF2FFFEE33FEEC33FCEE9DEC9E
:10121D00984005FCEE9DFE0FD5F0E9E4CEFD22EDE4
:10122D00F8F5F0EE8420D21CFEADF075F008EF2F2E
:10123D00FFED33FD4007985006D5F0F222C398FD1F
:05124D000FD5F0EA22BC
:0E125200C3E49FFFE49EFEE49DFDE49CFC22AD
:0C126000A42582F582E5F03583F5832299
:10127800021576E493A3F8E493A34003F68001F201
:1012880008DFF48029E493A3F85407240CC8C33377
:10129800C4540F4420C8834004F456800146F6DF46
:1012A800E4800B01020408102040809013CAE47EF9
:1012B800019360BCA3FF543F30E509541FFEE4933B
:1012C800A360010ECF54C025E060A840B8E493A302
:1012D800FAE493A3F8E493A3C8C582C8CAC583CA2D
:1012E800F0A3C8C582C8CAC583CADFE9DEE780BEE5
:0114110000DA
:00000001FF
